{
  "_format": "hh-sol-artifact-1",
  "contractName": "AMMPool",
  "sourceName": "src/AMMPool.sol",
  "abi": [
    {
      "inputs": [
        {
          "internalType": "address",
          "name": "_simplestToken",
          "type": "address"
        }
      ],
      "stateMutability": "nonpayable",
      "type": "constructor"
    },
    {
      "inputs": [],
      "name": "InsufficientETHReserve",
      "type": "error"
    },
    {
      "inputs": [],
      "name": "InsufficientLiquidity",
      "type": "error"
    },
    {
      "inputs": [],
      "name": "InsufficientTokenReserve",
      "type": "error"
    },
    {
      "inputs": [],
      "name": "InvalidAmount",
      "type": "error"
    },
    {
      "inputs": [],
      "name": "UnsupportedToken",
      "type": "error"
    },
    {
      "anonymous": false,
      "inputs": [
        {
          "indexed": true,
          "internalType": "address",
          "name": "provider",
          "type": "address"
        },
        {
          "indexed": false,
          "internalType": "uint256",
          "name": "amountSimplest",
          "type": "uint256"
        },
        {
          "indexed": false,
          "internalType": "uint256",
          "name": "amountETH",
          "type": "uint256"
        },
        {
          "indexed": false,
          "internalType": "uint256",
          "name": "liquidity",
          "type": "uint256"
        }
      ],
      "name": "LiquidityAdded",
      "type": "event"
    },
    {
      "anonymous": false,
      "inputs": [
        {
          "indexed": true,
          "internalType": "address",
          "name": "provider",
          "type": "address"
        },
        {
          "indexed": false,
          "internalType": "uint256",
          "name": "amountSimplest",
          "type": "uint256"
        },
        {
          "indexed": false,
          "internalType": "uint256",
          "name": "amountETH",
          "type": "uint256"
        },
        {
          "indexed": false,
          "internalType": "uint256",
          "name": "liquidity",
          "type": "uint256"
        }
      ],
      "name": "LiquidityRemoved",
      "type": "event"
    },
    {
      "anonymous": false,
      "inputs": [
        {
          "indexed": true,
          "internalType": "address",
          "name": "user",
          "type": "address"
        },
        {
          "indexed": false,
          "internalType": "address",
          "name": "tokenIn",
          "type": "address"
        },
        {
          "indexed": false,
          "internalType": "uint256",
          "name": "amountIn",
          "type": "uint256"
        },
        {
          "indexed": false,
          "internalType": "uint256",
          "name": "amountOut",
          "type": "uint256"
        }
      ],
      "name": "Swap",
      "type": "event"
    },
    {
      "inputs": [
        {
          "internalType": "uint256",
          "name": "amountSimplest",
          "type": "uint256"
        }
      ],
      "name": "addLiquidity",
      "outputs": [
        {
          "internalType": "uint256",
          "name": "liquidityShare",
          "type": "uint256"
        }
      ],
      "stateMutability": "payable",
      "type": "function"
    },
    {
      "inputs": [
        {
          "internalType": "address",
          "name": "",
          "type": "address"
        }
      ],
      "name": "liquidity",
      "outputs": [
        {
          "internalType": "uint256",
          "name": "",
          "type": "uint256"
        }
      ],
      "stateMutability": "view",
      "type": "function"
    },
    {
      "inputs": [
        {
          "internalType": "uint256",
          "name": "liquidityShare",
          "type": "uint256"
        }
      ],
      "name": "removeLiquidity",
      "outputs": [
        {
          "internalType": "uint256",
          "name": "amountSimplest",
          "type": "uint256"
        },
        {
          "internalType": "uint256",
          "name": "amountETH",
          "type": "uint256"
        }
      ],
      "stateMutability": "nonpayable",
      "type": "function"
    },
    {
      "inputs": [],
      "name": "reserveETH",
      "outputs": [
        {
          "internalType": "uint256",
          "name": "",
          "type": "uint256"
        }
      ],
      "stateMutability": "view",
      "type": "function"
    },
    {
      "inputs": [],
      "name": "reserveSimplest",
      "outputs": [
        {
          "internalType": "uint256",
          "name": "",
          "type": "uint256"
        }
      ],
      "stateMutability": "view",
      "type": "function"
    },
    {
      "inputs": [],
      "name": "simplestToken",
      "outputs": [
        {
          "internalType": "contract IERC20",
          "name": "",
          "type": "address"
        }
      ],
      "stateMutability": "view",
      "type": "function"
    },
    {
      "inputs": [
        {
          "internalType": "address",
          "name": "tokenIn",
          "type": "address"
        },
        {
          "internalType": "uint256",
          "name": "amountIn",
          "type": "uint256"
        }
      ],
      "name": "swap",
      "outputs": [
        {
          "internalType": "uint256",
          "name": "amountOut",
          "type": "uint256"
        }
      ],
      "stateMutability": "payable",
      "type": "function"
    },
    {
      "inputs": [],
      "name": "totalLiquidity",
      "outputs": [
        {
          "internalType": "uint256",
          "name": "",
          "type": "uint256"
        }
      ],
      "stateMutability": "view",
      "type": "function"
    }
  ],
  "bytecode": "0x608060405234801561001057600080fd5b50604051611415380380611415833981810160405281019061003291906100db565b806000806101000a81548173ffffffffffffffffffffffffffffffffffffffff021916908373ffffffffffffffffffffffffffffffffffffffff16021790555050610108565b600080fd5b600073ffffffffffffffffffffffffffffffffffffffff82169050919050565b60006100a88261007d565b9050919050565b6100b88161009d565b81146100c357600080fd5b50565b6000815190506100d5816100af565b92915050565b6000602082840312156100f1576100f0610078565b5b60006100ff848285016100c6565b91505092915050565b6112fe806101176000396000f3fe60806040526004361061007b5760003560e01c80639c8f9f231161004e5780639c8f9f2314610131578063b8c876b11461016f578063b968a4fe146101ac578063d004f0f7146101d75761007b565b8063100af2031461008057806315770f92146100ab578063492e2b47146100d657806351c6590a14610101575b600080fd5b34801561008c57600080fd5b50610095610207565b6040516100a29190610e66565b60405180910390f35b3480156100b757600080fd5b506100c061020d565b6040516100cd9190610e66565b60405180910390f35b3480156100e257600080fd5b506100eb610213565b6040516100f89190610e66565b60405180910390f35b61011b60048036038101906101169190610eb2565b610219565b6040516101289190610e66565b60405180910390f35b34801561013d57600080fd5b5061015860048036038101906101539190610eb2565b610461565b604051610166929190610edf565b60405180910390f35b34801561017b57600080fd5b5061019660048036038101906101919190610f66565b610701565b6040516101a39190610e66565b60405180910390f35b3480156101b857600080fd5b506101c1610719565b6040516101ce9190610ff2565b60405180910390f35b6101f160048036038101906101ec919061100d565b61073d565b6040516101fe9190610e66565b60405180910390f35b60025481565b60035481565b60015481565b6000808211158061022b575060003411155b15610262576040517f2c5211c600000000000000000000000000000000000000000000000000000000815260040160405180910390fd5b60008054906101000a900473ffffffffffffffffffffffffffffffffffffffff1673ffffffffffffffffffffffffffffffffffffffff166323b872dd3330856040518463ffffffff1660e01b81526004016102bf9392919061105c565b6020604051808303816000875af11580156102de573d6000803e3d6000fd5b505050506040513d601f19601f8201168201806040525081019061030291906110cb565b5060006003540361032857610321348361031c9190611127565b610a99565b9050610369565b6103666001546003548461033c9190611127565b6103469190611198565b600254600354346103579190611127565b6103619190611198565b610c36565b90505b80600460003373ffffffffffffffffffffffffffffffffffffffff1673ffffffffffffffffffffffffffffffffffffffff16815260200190815260200160002060008282546103b891906111c9565b9250508190555080600360008282546103d191906111c9565b9250508190555081600160008282546103ea91906111c9565b92505081905550346002600082825461040391906111c9565b925050819055503373ffffffffffffffffffffffffffffffffffffffff167f64b83944e79c3ce8d4c297411de637c3e102d064677aac0c163976ebdcd6f50e833484604051610454939291906111fd565b60405180910390a2919050565b6000806000831115806104b2575082600460003373ffffffffffffffffffffffffffffffffffffffff1673ffffffffffffffffffffffffffffffffffffffff16815260200190815260200160002054105b156104e9576040517fbb55fd2700000000000000000000000000000000000000000000000000000000815260040160405180910390fd5b600354600154846104fa9190611127565b6105049190611198565b9150600354600254846105179190611127565b6105219190611198565b905082600460003373ffffffffffffffffffffffffffffffffffffffff1673ffffffffffffffffffffffffffffffffffffffff16815260200190815260200160002060008282546105729190611234565b92505081905550826003600082825461058b9190611234565b9250508190555081600160008282546105a49190611234565b9250508190555080600260008282546105bd9190611234565b9250508190555060008054906101000a900473ffffffffffffffffffffffffffffffffffffffff1673ffffffffffffffffffffffffffffffffffffffff1663a9059cbb33846040518363ffffffff1660e01b815260040161061f929190611268565b6020604051808303816000875af115801561063e573d6000803e3d6000fd5b505050506040513d601f19601f8201168201806040525081019061066291906110cb565b503373ffffffffffffffffffffffffffffffffffffffff166108fc829081150290604051600060405180830381858888f193505050501580156106a9573d6000803e3d6000fd5b503373ffffffffffffffffffffffffffffffffffffffff167f1dc8bb69df2b8e91fbdcbfcf93d951b3f0000f085a95fe3f7946d6161439245d8383866040516106f4939291906111fd565b60405180910390a2915091565b60046020528060005260406000206000915090505481565b60008054906101000a900473ffffffffffffffffffffffffffffffffffffffff1681565b60008060009054906101000a900473ffffffffffffffffffffffffffffffffffffffff1673ffffffffffffffffffffffffffffffffffffffff168373ffffffffffffffffffffffffffffffffffffffff1614801561079c575060008211155b156107d3576040517f2c5211c600000000000000000000000000000000000000000000000000000000815260040160405180910390fd5b600073ffffffffffffffffffffffffffffffffffffffff168373ffffffffffffffffffffffffffffffffffffffff16148015610810575060003411155b15610847576040517f2c5211c600000000000000000000000000000000000000000000000000000000815260040160405180910390fd5b60008060009054906101000a900473ffffffffffffffffffffffffffffffffffffffff1673ffffffffffffffffffffffffffffffffffffffff168473ffffffffffffffffffffffffffffffffffffffff16149050801580156108d65750600073ffffffffffffffffffffffffffffffffffffffff168473ffffffffffffffffffffffffffffffffffffffff1614155b1561090d576040517f6a17288200000000000000000000000000000000000000000000000000000000815260040160405180910390fd5b80156109a65760006103e86103e5856109269190611127565b6109309190611198565b90508060015461094091906111c9565b8160025461094e9190611127565b6109589190611198565b9250600254831115610996576040517f9c3a23f500000000000000000000000000000000000000000000000000000000815260040160405180910390fd5b6109a08484610c4f565b50610a34565b60006103e86103e5346109b99190611127565b6109c39190611198565b9050806002546109d391906111c9565b816001546109e19190611127565b6109eb9190611198565b9250600154831115610a29576040517ff7ea86f700000000000000000000000000000000000000000000000000000000815260040160405180910390fd5b610a3283610d6d565b505b3373ffffffffffffffffffffffffffffffffffffffff167ffa2dda1cc1b86e41239702756b13effbc1a092b5c57e3ad320fbe4f3b13fe2358583610a785734610a7a565b855b85604051610a8a93929190611291565b60405180910390a25092915050565b600060018211610aab57819050610c31565b60008290506000600190507001000000000000000000000000000000008210610add57608082901c9150604081901b90505b680100000000000000008210610afc57604082901c9150602081901b90505b6401000000008210610b1757602082901c9150601081901b90505b620100008210610b3057601082901c9150600881901b90505b6101008210610b4857600882901c9150600481901b90505b60108210610b5f57600482901c9150600281901b90505b60048210610b6f57600181901b90505b600181600302901c90506001818581610b8b57610b8a611169565b5b048201901c90506001818581610ba457610ba3611169565b5b048201901c90506001818581610bbd57610bbc611169565b5b048201901c90506001818581610bd657610bd5611169565b5b048201901c90506001818581610bef57610bee611169565b5b048201901c90506001818581610c0857610c07611169565b5b048201901c9050610c2a818581610c2257610c21611169565b5b048211610e41565b8103925050505b919050565b6000818310610c455781610c47565b825b905092915050565b8160016000828254610c6191906111c9565b925050819055508060026000828254610c7a9190611234565b9250508190555060008054906101000a900473ffffffffffffffffffffffffffffffffffffffff1673ffffffffffffffffffffffffffffffffffffffff166323b872dd3330856040518463ffffffff1660e01b8152600401610cde9392919061105c565b6020604051808303816000875af1158015610cfd573d6000803e3d6000fd5b505050506040513d601f19601f82011682018060405250810190610d2191906110cb565b503373ffffffffffffffffffffffffffffffffffffffff166108fc829081150290604051600060405180830381858888f19350505050158015610d68573d6000803e3d6000fd5b505050565b3460026000828254610d7f91906111c9565b925050819055508060016000828254610d989190611234565b9250508190555060008054906101000a900473ffffffffffffffffffffffffffffffffffffffff1673ffffffffffffffffffffffffffffffffffffffff1663a9059cbb33836040518363ffffffff1660e01b8152600401610dfa929190611268565b6020604051808303816000875af1158015610e19573d6000803e3d6000fd5b505050506040513d601f19601f82011682018060405250810190610e3d91906110cb565b5050565b60008115159050919050565b6000819050919050565b610e6081610e4d565b82525050565b6000602082019050610e7b6000830184610e57565b92915050565b600080fd5b610e8f81610e4d565b8114610e9a57600080fd5b50565b600081359050610eac81610e86565b92915050565b600060208284031215610ec857610ec7610e81565b5b6000610ed684828501610e9d565b91505092915050565b6000604082019050610ef46000830185610e57565b610f016020830184610e57565b9392505050565b600073ffffffffffffffffffffffffffffffffffffffff82169050919050565b6000610f3382610f08565b9050919050565b610f4381610f28565b8114610f4e57600080fd5b50565b600081359050610f6081610f3a565b92915050565b600060208284031215610f7c57610f7b610e81565b5b6000610f8a84828501610f51565b91505092915050565b6000819050919050565b6000610fb8610fb3610fae84610f08565b610f93565b610f08565b9050919050565b6000610fca82610f9d565b9050919050565b6000610fdc82610fbf565b9050919050565b610fec81610fd1565b82525050565b60006020820190506110076000830184610fe3565b92915050565b6000806040838503121561102457611023610e81565b5b600061103285828601610f51565b925050602061104385828601610e9d565b9150509250929050565b61105681610f28565b82525050565b6000606082019050611071600083018661104d565b61107e602083018561104d565b61108b6040830184610e57565b949350505050565b60008115159050919050565b6110a881611093565b81146110b357600080fd5b50565b6000815190506110c58161109f565b92915050565b6000602082840312156110e1576110e0610e81565b5b60006110ef848285016110b6565b91505092915050565b7f4e487b7100000000000000000000000000000000000000000000000000000000600052601160045260246000fd5b600061113282610e4d565b915061113d83610e4d565b925082820261114b81610e4d565b91508282048414831517611162576111616110f8565b5b5092915050565b7f4e487b7100000000000000000000000000000000000000000000000000000000600052601260045260246000fd5b60006111a382610e4d565b91506111ae83610e4d565b9250826111be576111bd611169565b5b828204905092915050565b60006111d482610e4d565b91506111df83610e4d565b92508282019050808211156111f7576111f66110f8565b5b92915050565b60006060820190506112126000830186610e57565b61121f6020830185610e57565b61122c6040830184610e57565b949350505050565b600061123f82610e4d565b915061124a83610e4d565b9250828203905081811115611262576112616110f8565b5b92915050565b600060408201905061127d600083018561104d565b61128a6020830184610e57565b9392505050565b60006060820190506112a6600083018661104d565b6112b36020830185610e57565b6112c06040830184610e57565b94935050505056fea2646970667358221220b896fd2db9c514806011459cebae81f15516b355b866bcc631dcefbb821fad2164736f6c634300081c0033",
  "linkReferences": {},
  "deployedLinkReferences": {}
}