{
  "_format": "hh-sol-artifact-1",
  "contractName": "AMMPool",
  "sourceName": "src/AMMPool.sol",
  "abi": [
    {
      "inputs": [
        {
          "internalType": "address",
          "name": "_simplestToken",
          "type": "address"
        }
      ],
      "stateMutability": "nonpayable",
      "type": "constructor"
    },
    {
      "anonymous": false,
      "inputs": [
        {
          "indexed": true,
          "internalType": "address",
          "name": "provider",
          "type": "address"
        },
        {
          "indexed": false,
          "internalType": "uint256",
          "name": "amountSimplest",
          "type": "uint256"
        },
        {
          "indexed": false,
          "internalType": "uint256",
          "name": "amountETH",
          "type": "uint256"
        },
        {
          "indexed": false,
          "internalType": "uint256",
          "name": "liquidity",
          "type": "uint256"
        }
      ],
      "name": "LiquidityAdded",
      "type": "event"
    },
    {
      "anonymous": false,
      "inputs": [
        {
          "indexed": true,
          "internalType": "address",
          "name": "provider",
          "type": "address"
        },
        {
          "indexed": false,
          "internalType": "uint256",
          "name": "amountSimplest",
          "type": "uint256"
        },
        {
          "indexed": false,
          "internalType": "uint256",
          "name": "amountETH",
          "type": "uint256"
        },
        {
          "indexed": false,
          "internalType": "uint256",
          "name": "liquidity",
          "type": "uint256"
        }
      ],
      "name": "LiquidityRemoved",
      "type": "event"
    },
    {
      "anonymous": false,
      "inputs": [
        {
          "indexed": true,
          "internalType": "address",
          "name": "user",
          "type": "address"
        },
        {
          "indexed": false,
          "internalType": "address",
          "name": "tokenIn",
          "type": "address"
        },
        {
          "indexed": false,
          "internalType": "uint256",
          "name": "amountIn",
          "type": "uint256"
        },
        {
          "indexed": false,
          "internalType": "uint256",
          "name": "amountOut",
          "type": "uint256"
        }
      ],
      "name": "Swap",
      "type": "event"
    },
    {
      "inputs": [
        {
          "internalType": "uint256",
          "name": "amountSimplest",
          "type": "uint256"
        }
      ],
      "name": "addLiquidity",
      "outputs": [
        {
          "internalType": "uint256",
          "name": "liquidityShare",
          "type": "uint256"
        }
      ],
      "stateMutability": "payable",
      "type": "function"
    },
    {
      "inputs": [
        {
          "internalType": "address",
          "name": "",
          "type": "address"
        }
      ],
      "name": "liquidity",
      "outputs": [
        {
          "internalType": "uint256",
          "name": "",
          "type": "uint256"
        }
      ],
      "stateMutability": "view",
      "type": "function"
    },
    {
      "inputs": [
        {
          "internalType": "uint256",
          "name": "liquidityShare",
          "type": "uint256"
        }
      ],
      "name": "removeLiquidity",
      "outputs": [
        {
          "internalType": "uint256",
          "name": "amountSimplest",
          "type": "uint256"
        },
        {
          "internalType": "uint256",
          "name": "amountETH",
          "type": "uint256"
        }
      ],
      "stateMutability": "nonpayable",
      "type": "function"
    },
    {
      "inputs": [],
      "name": "reserveETH",
      "outputs": [
        {
          "internalType": "uint256",
          "name": "",
          "type": "uint256"
        }
      ],
      "stateMutability": "view",
      "type": "function"
    },
    {
      "inputs": [],
      "name": "reserveSimplest",
      "outputs": [
        {
          "internalType": "uint256",
          "name": "",
          "type": "uint256"
        }
      ],
      "stateMutability": "view",
      "type": "function"
    },
    {
      "inputs": [],
      "name": "simplestToken",
      "outputs": [
        {
          "internalType": "contract IERC20",
          "name": "",
          "type": "address"
        }
      ],
      "stateMutability": "view",
      "type": "function"
    },
    {
      "inputs": [
        {
          "internalType": "address",
          "name": "tokenIn",
          "type": "address"
        },
        {
          "internalType": "uint256",
          "name": "amountIn",
          "type": "uint256"
        }
      ],
      "name": "swap",
      "outputs": [
        {
          "internalType": "uint256",
          "name": "amountOut",
          "type": "uint256"
        }
      ],
      "stateMutability": "payable",
      "type": "function"
    },
    {
      "inputs": [],
      "name": "totalLiquidity",
      "outputs": [
        {
          "internalType": "uint256",
          "name": "",
          "type": "uint256"
        }
      ],
      "stateMutability": "view",
      "type": "function"
    }
  ],
  "bytecode": "0x608060405234801561001057600080fd5b5060405161163f38038061163f833981810160405281019061003291906100db565b806000806101000a81548173ffffffffffffffffffffffffffffffffffffffff021916908373ffffffffffffffffffffffffffffffffffffffff16021790555050610108565b600080fd5b600073ffffffffffffffffffffffffffffffffffffffff82169050919050565b60006100a88261007d565b9050919050565b6100b88161009d565b81146100c357600080fd5b50565b6000815190506100d5816100af565b92915050565b6000602082840312156100f1576100f0610078565b5b60006100ff848285016100c6565b91505092915050565b611528806101176000396000f3fe60806040526004361061007b5760003560e01c80639c8f9f231161004e5780639c8f9f2314610131578063b8c876b11461016f578063b968a4fe146101ac578063d004f0f7146101d75761007b565b8063100af2031461008057806315770f92146100ab578063492e2b47146100d657806351c6590a14610101575b600080fd5b34801561008c57600080fd5b50610095610207565b6040516100a29190610e63565b60405180910390f35b3480156100b757600080fd5b506100c061020d565b6040516100cd9190610e63565b60405180910390f35b3480156100e257600080fd5b506100eb610213565b6040516100f89190610e63565b60405180910390f35b61011b60048036038101906101169190610eaf565b610219565b6040516101289190610e63565b60405180910390f35b34801561013d57600080fd5b5061015860048036038101906101539190610eaf565b610468565b604051610166929190610edc565b60405180910390f35b34801561017b57600080fd5b5061019660048036038101906101919190610f63565b610711565b6040516101a39190610e63565b60405180910390f35b3480156101b857600080fd5b506101c1610729565b6040516101ce9190610fef565b60405180910390f35b6101f160048036038101906101ec919061100a565b61074d565b6040516101fe9190610e63565b60405180910390f35b60025481565b60035481565b60015481565b6000808211801561022a5750600034115b610269576040517f08c379a0000000000000000000000000000000000000000000000000000000008152600401610260906110a7565b60405180910390fd5b60008054906101000a900473ffffffffffffffffffffffffffffffffffffffff1673ffffffffffffffffffffffffffffffffffffffff166323b872dd3330856040518463ffffffff1660e01b81526004016102c6939291906110d6565b6020604051808303816000875af11580156102e5573d6000803e3d6000fd5b505050506040513d601f19601f820116820180604052508101906103099190611145565b5060006003540361032f57610328348361032391906111a1565b610a96565b9050610370565b61036d6001546003548461034391906111a1565b61034d9190611212565b6002546003543461035e91906111a1565b6103689190611212565b610c33565b90505b80600460003373ffffffffffffffffffffffffffffffffffffffff1673ffffffffffffffffffffffffffffffffffffffff16815260200190815260200160002060008282546103bf9190611243565b9250508190555080600360008282546103d89190611243565b9250508190555081600160008282546103f19190611243565b92505081905550346002600082825461040a9190611243565b925050819055503373ffffffffffffffffffffffffffffffffffffffff167f64b83944e79c3ce8d4c297411de637c3e102d064677aac0c163976ebdcd6f50e83348460405161045b93929190611277565b60405180910390a2919050565b6000806000831180156104ba575082600460003373ffffffffffffffffffffffffffffffffffffffff1673ffffffffffffffffffffffffffffffffffffffff1681526020019081526020016000205410155b6104f9576040517f08c379a00000000000000000000000000000000000000000000000000000000081526004016104f0906112fa565b60405180910390fd5b6003546001548461050a91906111a1565b6105149190611212565b91506003546002548461052791906111a1565b6105319190611212565b905082600460003373ffffffffffffffffffffffffffffffffffffffff1673ffffffffffffffffffffffffffffffffffffffff1681526020019081526020016000206000828254610582919061131a565b92505081905550826003600082825461059b919061131a565b9250508190555081600160008282546105b4919061131a565b9250508190555080600260008282546105cd919061131a565b9250508190555060008054906101000a900473ffffffffffffffffffffffffffffffffffffffff1673ffffffffffffffffffffffffffffffffffffffff1663a9059cbb33846040518363ffffffff1660e01b815260040161062f92919061134e565b6020604051808303816000875af115801561064e573d6000803e3d6000fd5b505050506040513d601f19601f820116820180604052508101906106729190611145565b503373ffffffffffffffffffffffffffffffffffffffff166108fc829081150290604051600060405180830381858888f193505050501580156106b9573d6000803e3d6000fd5b503373ffffffffffffffffffffffffffffffffffffffff167f1dc8bb69df2b8e91fbdcbfcf93d951b3f0000f085a95fe3f7946d6161439245d83838660405161070493929190611277565b60405180910390a2915091565b60046020528060005260406000206000915090505481565b60008054906101000a900473ffffffffffffffffffffffffffffffffffffffff1681565b60008060009054906101000a900473ffffffffffffffffffffffffffffffffffffffff1673ffffffffffffffffffffffffffffffffffffffff168373ffffffffffffffffffffffffffffffffffffffff161480156107ab5750600082115b806107ee5750600073ffffffffffffffffffffffffffffffffffffffff168373ffffffffffffffffffffffffffffffffffffffff161480156107ed5750600034115b5b61082d576040517f08c379a0000000000000000000000000000000000000000000000000000000008152600401610824906110a7565b60405180910390fd5b60008060009054906101000a900473ffffffffffffffffffffffffffffffffffffffff1673ffffffffffffffffffffffffffffffffffffffff168473ffffffffffffffffffffffffffffffffffffffff1614905080806108b95750600073ffffffffffffffffffffffffffffffffffffffff168473ffffffffffffffffffffffffffffffffffffffff16145b6108f8576040517f08c379a00000000000000000000000000000000000000000000000000000000081526004016108ef906113c3565b60405180910390fd5b801561099a5760006103e86103e58561091191906111a1565b61091b9190611212565b90508060015461092b9190611243565b8160025461093991906111a1565b6109439190611212565b925060025483111561098a576040517f08c379a00000000000000000000000000000000000000000000000000000000081526004016109819061142f565b60405180910390fd5b6109948484610c4c565b50610a31565b60006103e86103e5346109ad91906111a1565b6109b79190611212565b9050806002546109c79190611243565b816001546109d591906111a1565b6109df9190611212565b9250600154831115610a26576040517f08c379a0000000000000000000000000000000000000000000000000000000008152600401610a1d9061149b565b60405180910390fd5b610a2f83610d6a565b505b3373ffffffffffffffffffffffffffffffffffffffff167ffa2dda1cc1b86e41239702756b13effbc1a092b5c57e3ad320fbe4f3b13fe2358583610a755734610a77565b855b85604051610a87939291906114bb565b60405180910390a25092915050565b600060018211610aa857819050610c2e565b60008290506000600190507001000000000000000000000000000000008210610ada57608082901c9150604081901b90505b680100000000000000008210610af957604082901c9150602081901b90505b6401000000008210610b1457602082901c9150601081901b90505b620100008210610b2d57601082901c9150600881901b90505b6101008210610b4557600882901c9150600481901b90505b60108210610b5c57600482901c9150600281901b90505b60048210610b6c57600181901b90505b600181600302901c90506001818581610b8857610b876111e3565b5b048201901c90506001818581610ba157610ba06111e3565b5b048201901c90506001818581610bba57610bb96111e3565b5b048201901c90506001818581610bd357610bd26111e3565b5b048201901c90506001818581610bec57610beb6111e3565b5b048201901c90506001818581610c0557610c046111e3565b5b048201901c9050610c27818581610c1f57610c1e6111e3565b5b048211610e3e565b8103925050505b919050565b6000818310610c425781610c44565b825b905092915050565b8160016000828254610c5e9190611243565b925050819055508060026000828254610c77919061131a565b9250508190555060008054906101000a900473ffffffffffffffffffffffffffffffffffffffff1673ffffffffffffffffffffffffffffffffffffffff166323b872dd3330856040518463ffffffff1660e01b8152600401610cdb939291906110d6565b6020604051808303816000875af1158015610cfa573d6000803e3d6000fd5b505050506040513d601f19601f82011682018060405250810190610d1e9190611145565b503373ffffffffffffffffffffffffffffffffffffffff166108fc829081150290604051600060405180830381858888f19350505050158015610d65573d6000803e3d6000fd5b505050565b3460026000828254610d7c9190611243565b925050819055508060016000828254610d95919061131a565b9250508190555060008054906101000a900473ffffffffffffffffffffffffffffffffffffffff1673ffffffffffffffffffffffffffffffffffffffff1663a9059cbb33836040518363ffffffff1660e01b8152600401610df792919061134e565b6020604051808303816000875af1158015610e16573d6000803e3d6000fd5b505050506040513d601f19601f82011682018060405250810190610e3a9190611145565b5050565b60008115159050919050565b6000819050919050565b610e5d81610e4a565b82525050565b6000602082019050610e786000830184610e54565b92915050565b600080fd5b610e8c81610e4a565b8114610e9757600080fd5b50565b600081359050610ea981610e83565b92915050565b600060208284031215610ec557610ec4610e7e565b5b6000610ed384828501610e9a565b91505092915050565b6000604082019050610ef16000830185610e54565b610efe6020830184610e54565b9392505050565b600073ffffffffffffffffffffffffffffffffffffffff82169050919050565b6000610f3082610f05565b9050919050565b610f4081610f25565b8114610f4b57600080fd5b50565b600081359050610f5d81610f37565b92915050565b600060208284031215610f7957610f78610e7e565b5b6000610f8784828501610f4e565b91505092915050565b6000819050919050565b6000610fb5610fb0610fab84610f05565b610f90565b610f05565b9050919050565b6000610fc782610f9a565b9050919050565b6000610fd982610fbc565b9050919050565b610fe981610fce565b82525050565b60006020820190506110046000830184610fe0565b92915050565b6000806040838503121561102157611020610e7e565b5b600061102f85828601610f4e565b925050602061104085828601610e9a565b9150509250929050565b600082825260208201905092915050565b7f496e76616c696420616d6f756e74000000000000000000000000000000000000600082015250565b6000611091600e8361104a565b915061109c8261105b565b602082019050919050565b600060208201905081810360008301526110c081611084565b9050919050565b6110d081610f25565b82525050565b60006060820190506110eb60008301866110c7565b6110f860208301856110c7565b6111056040830184610e54565b949350505050565b60008115159050919050565b6111228161110d565b811461112d57600080fd5b50565b60008151905061113f81611119565b92915050565b60006020828403121561115b5761115a610e7e565b5b600061116984828501611130565b91505092915050565b7f4e487b7100000000000000000000000000000000000000000000000000000000600052601160045260246000fd5b60006111ac82610e4a565b91506111b783610e4a565b92508282026111c581610e4a565b915082820484148315176111dc576111db611172565b5b5092915050565b7f4e487b7100000000000000000000000000000000000000000000000000000000600052601260045260246000fd5b600061121d82610e4a565b915061122883610e4a565b925082611238576112376111e3565b5b828204905092915050565b600061124e82610e4a565b915061125983610e4a565b925082820190508082111561127157611270611172565b5b92915050565b600060608201905061128c6000830186610e54565b6112996020830185610e54565b6112a66040830184610e54565b949350505050565b7f496e73756666696369656e74206c697175696469747900000000000000000000600082015250565b60006112e460168361104a565b91506112ef826112ae565b602082019050919050565b60006020820190508181036000830152611313816112d7565b9050919050565b600061132582610e4a565b915061133083610e4a565b925082820390508181111561134857611347611172565b5b92915050565b600060408201905061136360008301856110c7565b6113706020830184610e54565b9392505050565b7f556e737570706f7274656420746f6b656e000000000000000000000000000000600082015250565b60006113ad60118361104a565b91506113b882611377565b602082019050919050565b600060208201905081810360008301526113dc816113a0565b9050919050565b7f496e73756666696369656e742045544820726573657276650000000000000000600082015250565b600061141960188361104a565b9150611424826113e3565b602082019050919050565b600060208201905081810360008301526114488161140c565b9050919050565b7f496e73756666696369656e7420746f6b656e2072657365727665000000000000600082015250565b6000611485601a8361104a565b91506114908261144f565b602082019050919050565b600060208201905081810360008301526114b481611478565b9050919050565b60006060820190506114d060008301866110c7565b6114dd6020830185610e54565b6114ea6040830184610e54565b94935050505056fea2646970667358221220b77841e4f0522662a439ddac718eb8cea0cbe34e920e1138873f37ac5fe91dcb64736f6c634300081c0033",
  "linkReferences": {},
  "deployedLinkReferences": {}
}