{
  "_format": "hh-sol-artifact-1",
  "contractName": "AMMPool",
  "sourceName": "src/AMMPool.sol",
  "abi": [
    {
      "inputs": [
        {
          "internalType": "address",
          "name": "_simplestToken",
          "type": "address"
        }
      ],
      "stateMutability": "nonpayable",
      "type": "constructor"
    },
    {
      "inputs": [],
      "name": "InsufficientETHReserve",
      "type": "error"
    },
    {
      "inputs": [],
      "name": "InsufficientLiquidity",
      "type": "error"
    },
    {
      "inputs": [],
      "name": "InsufficientOutput",
      "type": "error"
    },
    {
      "inputs": [],
      "name": "InsufficientTokenReserve",
      "type": "error"
    },
    {
      "inputs": [],
      "name": "InvalidAmount",
      "type": "error"
    },
    {
      "inputs": [],
      "name": "UnsupportedToken",
      "type": "error"
    },
    {
      "anonymous": false,
      "inputs": [
        {
          "indexed": true,
          "internalType": "address",
          "name": "provider",
          "type": "address"
        },
        {
          "indexed": false,
          "internalType": "uint256",
          "name": "amountSimplest",
          "type": "uint256"
        },
        {
          "indexed": false,
          "internalType": "uint256",
          "name": "amountETH",
          "type": "uint256"
        },
        {
          "indexed": false,
          "internalType": "uint256",
          "name": "lpTokenAmount",
          "type": "uint256"
        }
      ],
      "name": "LiquidityAdded",
      "type": "event"
    },
    {
      "anonymous": false,
      "inputs": [
        {
          "indexed": true,
          "internalType": "address",
          "name": "provider",
          "type": "address"
        },
        {
          "indexed": false,
          "internalType": "uint256",
          "name": "amountSimplest",
          "type": "uint256"
        },
        {
          "indexed": false,
          "internalType": "uint256",
          "name": "amountETH",
          "type": "uint256"
        },
        {
          "indexed": false,
          "internalType": "uint256",
          "name": "lpTokenAmount",
          "type": "uint256"
        }
      ],
      "name": "LiquidityRemoved",
      "type": "event"
    },
    {
      "anonymous": false,
      "inputs": [
        {
          "indexed": true,
          "internalType": "address",
          "name": "user",
          "type": "address"
        },
        {
          "indexed": false,
          "internalType": "address",
          "name": "tokenIn",
          "type": "address"
        },
        {
          "indexed": false,
          "internalType": "uint256",
          "name": "amountIn",
          "type": "uint256"
        },
        {
          "indexed": false,
          "internalType": "uint256",
          "name": "amountOut",
          "type": "uint256"
        }
      ],
      "name": "Swap",
      "type": "event"
    },
    {
      "inputs": [
        {
          "internalType": "uint256",
          "name": "amountSimplest",
          "type": "uint256"
        },
        {
          "internalType": "uint256",
          "name": "minLPTokens",
          "type": "uint256"
        }
      ],
      "name": "addLiquidity",
      "outputs": [
        {
          "internalType": "uint256",
          "name": "lpTokenAmount",
          "type": "uint256"
        }
      ],
      "stateMutability": "payable",
      "type": "function"
    },
    {
      "inputs": [
        {
          "internalType": "uint256",
          "name": "amountSimplest",
          "type": "uint256"
        },
        {
          "internalType": "uint256",
          "name": "amountETH",
          "type": "uint256"
        }
      ],
      "name": "getLiquidityOutput",
      "outputs": [
        {
          "internalType": "uint256",
          "name": "lpTokenAmount",
          "type": "uint256"
        }
      ],
      "stateMutability": "view",
      "type": "function"
    },
    {
      "inputs": [
        {
          "internalType": "uint256",
          "name": "lpTokenAmount",
          "type": "uint256"
        }
      ],
      "name": "getRemoveLiquidityOutput",
      "outputs": [
        {
          "internalType": "uint256",
          "name": "amountSimplest",
          "type": "uint256"
        },
        {
          "internalType": "uint256",
          "name": "amountETH",
          "type": "uint256"
        }
      ],
      "stateMutability": "view",
      "type": "function"
    },
    {
      "inputs": [
        {
          "internalType": "address",
          "name": "tokenIn",
          "type": "address"
        },
        {
          "internalType": "uint256",
          "name": "amountIn",
          "type": "uint256"
        }
      ],
      "name": "getSwapOutput",
      "outputs": [
        {
          "internalType": "uint256",
          "name": "amountOut",
          "type": "uint256"
        }
      ],
      "stateMutability": "view",
      "type": "function"
    },
    {
      "inputs": [
        {
          "internalType": "address",
          "name": "",
          "type": "address"
        }
      ],
      "name": "lpTokens",
      "outputs": [
        {
          "internalType": "uint256",
          "name": "",
          "type": "uint256"
        }
      ],
      "stateMutability": "view",
      "type": "function"
    },
    {
      "inputs": [
        {
          "internalType": "uint256",
          "name": "lpTokenAmount",
          "type": "uint256"
        },
        {
          "internalType": "uint256",
          "name": "minAmountSimplest",
          "type": "uint256"
        },
        {
          "internalType": "uint256",
          "name": "minAmountETH",
          "type": "uint256"
        }
      ],
      "name": "removeLiquidity",
      "outputs": [
        {
          "internalType": "uint256",
          "name": "amountSimplest",
          "type": "uint256"
        },
        {
          "internalType": "uint256",
          "name": "amountETH",
          "type": "uint256"
        }
      ],
      "stateMutability": "nonpayable",
      "type": "function"
    },
    {
      "inputs": [],
      "name": "reserveETH",
      "outputs": [
        {
          "internalType": "uint256",
          "name": "",
          "type": "uint256"
        }
      ],
      "stateMutability": "view",
      "type": "function"
    },
    {
      "inputs": [],
      "name": "reserveSimplest",
      "outputs": [
        {
          "internalType": "uint256",
          "name": "",
          "type": "uint256"
        }
      ],
      "stateMutability": "view",
      "type": "function"
    },
    {
      "inputs": [],
      "name": "simplestToken",
      "outputs": [
        {
          "internalType": "contract IERC20",
          "name": "",
          "type": "address"
        }
      ],
      "stateMutability": "view",
      "type": "function"
    },
    {
      "inputs": [
        {
          "internalType": "address",
          "name": "tokenIn",
          "type": "address"
        },
        {
          "internalType": "uint256",
          "name": "amountIn",
          "type": "uint256"
        },
        {
          "internalType": "uint256",
          "name": "minAmountOut",
          "type": "uint256"
        }
      ],
      "name": "swap",
      "outputs": [
        {
          "internalType": "uint256",
          "name": "amountOut",
          "type": "uint256"
        }
      ],
      "stateMutability": "payable",
      "type": "function"
    },
    {
      "inputs": [],
      "name": "totalLPTokens",
      "outputs": [
        {
          "internalType": "uint256",
          "name": "",
          "type": "uint256"
        }
      ],
      "stateMutability": "view",
      "type": "function"
    }
  ],
  "bytecode": "0x608060405234801561001057600080fd5b506040516118ee3803806118ee833981810160405281019061003291906100db565b806000806101000a81548173ffffffffffffffffffffffffffffffffffffffff021916908373ffffffffffffffffffffffffffffffffffffffff16021790555050610108565b600080fd5b600073ffffffffffffffffffffffffffffffffffffffff82169050919050565b60006100a88261007d565b9050919050565b6100b88161009d565b81146100c357600080fd5b50565b6000815190506100d5816100af565b92915050565b6000602082840312156100f1576100f0610078565b5b60006100ff848285016100c6565b91505092915050565b6117d7806101176000396000f3fe60806040526004361061009c5760003560e01c806398202f241161006457806398202f24146101b05780639cd441da146101ed5780639f1d0f591461021d578063b17b658d1461024d578063b968a4fe1461028a578063ef6283d9146102b55761009c565b8063100af203146100a15780632156a05c146100cc578063492e2b471461010a578063513a7c2414610135578063857620e114610172575b600080fd5b3480156100ad57600080fd5b506100b66102e0565b6040516100c39190611259565b60405180910390f35b3480156100d857600080fd5b506100f360048036038101906100ee91906112a5565b6102e6565b6040516101019291906112d2565b60405180910390f35b34801561011657600080fd5b5061011f61033f565b60405161012c9190611259565b60405180910390f35b34801561014157600080fd5b5061015c600480360381019061015791906112fb565b610345565b6040516101699190611259565b60405180910390f35b34801561017e57600080fd5b506101996004803603810190610194919061133b565b6103b2565b6040516101a79291906112d2565b60405180910390f35b3480156101bc57600080fd5b506101d760048036038101906101d291906113ec565b610699565b6040516101e49190611259565b60405180910390f35b610207600480360381019061020291906112fb565b6107f6565b6040516102149190611259565b60405180910390f35b6102376004803603810190610232919061142c565b610a79565b6040516102449190611259565b60405180910390f35b34801561025957600080fd5b50610274600480360381019061026f919061147f565b610e4a565b6040516102819190611259565b60405180910390f35b34801561029657600080fd5b5061029f610e62565b6040516102ac919061150b565b60405180910390f35b3480156102c157600080fd5b506102ca610e86565b6040516102d79190611259565b60405180910390f35b60025481565b6000806000600354036102ff576000809150915061033a565b600354600154846103109190611555565b61031a91906115c6565b91506003546002548461032d9190611555565b61033791906115c6565b90505b915091565b60015481565b6000806003540361036b57610364828461035f9190611555565b610e8c565b90506103ac565b6103a96001546003548561037f9190611555565b61038991906115c6565b6002546003548561039a9190611555565b6103a491906115c6565b611029565b90505b92915050565b600080600085111580610403575084600460003373ffffffffffffffffffffffffffffffffffffffff1673ffffffffffffffffffffffffffffffffffffffff16815260200190815260200160002054105b1561043a576040517fbb55fd2700000000000000000000000000000000000000000000000000000000815260040160405180910390fd5b6003546001548661044b9190611555565b61045591906115c6565b9150600354600254866104689190611555565b61047291906115c6565b90508382108061048157508281105b156104b8576040517fbb2875c300000000000000000000000000000000000000000000000000000000815260040160405180910390fd5b84600460003373ffffffffffffffffffffffffffffffffffffffff1673ffffffffffffffffffffffffffffffffffffffff168152602001908152602001600020600082825461050791906115f7565b92505081905550846003600082825461052091906115f7565b92505081905550816001600082825461053991906115f7565b92505081905550806002600082825461055291906115f7565b9250508190555060008054906101000a900473ffffffffffffffffffffffffffffffffffffffff1673ffffffffffffffffffffffffffffffffffffffff1663a9059cbb33846040518363ffffffff1660e01b81526004016105b492919061163a565b6020604051808303816000875af11580156105d3573d6000803e3d6000fd5b505050506040513d601f19601f820116820180604052508101906105f7919061169b565b503373ffffffffffffffffffffffffffffffffffffffff166108fc829081150290604051600060405180830381858888f1935050505015801561063e573d6000803e3d6000fd5b503373ffffffffffffffffffffffffffffffffffffffff167f1dc8bb69df2b8e91fbdcbfcf93d951b3f0000f085a95fe3f7946d6161439245d838388604051610689939291906116c8565b60405180910390a2935093915050565b60008060009054906101000a900473ffffffffffffffffffffffffffffffffffffffff1673ffffffffffffffffffffffffffffffffffffffff168373ffffffffffffffffffffffffffffffffffffffff160361073c5760006103e86103e5846107029190611555565b61070c91906115c6565b90508060015461071c91906116ff565b8160025461072a9190611555565b61073491906115c6565b9150506107f0565b600073ffffffffffffffffffffffffffffffffffffffff168373ffffffffffffffffffffffffffffffffffffffff16036107bd5760006103e86103e5846107839190611555565b61078d91906115c6565b90508060025461079d91906116ff565b816001546107ab9190611555565b6107b591906115c6565b9150506107ef565b6040517f6a17288200000000000000000000000000000000000000000000000000000000815260040160405180910390fd5b5b92915050565b60008083111580610808575060003411155b1561083f576040517f2c5211c600000000000000000000000000000000000000000000000000000000815260040160405180910390fd5b60008054906101000a900473ffffffffffffffffffffffffffffffffffffffff1673ffffffffffffffffffffffffffffffffffffffff166323b872dd3330866040518463ffffffff1660e01b815260040161089c93929190611733565b6020604051808303816000875af11580156108bb573d6000803e3d6000fd5b505050506040513d601f19601f820116820180604052508101906108df919061169b565b50600060035403610905576108fe34846108f99190611555565b610e8c565b9050610946565b610943600154600354856109199190611555565b61092391906115c6565b600254600354346109349190611555565b61093e91906115c6565b611029565b90505b81811015610980576040517fbb2875c300000000000000000000000000000000000000000000000000000000815260040160405180910390fd5b80600460003373ffffffffffffffffffffffffffffffffffffffff1673ffffffffffffffffffffffffffffffffffffffff16815260200190815260200160002060008282546109cf91906116ff565b9250508190555080600360008282546109e891906116ff565b925050819055508260016000828254610a0191906116ff565b925050819055503460026000828254610a1a91906116ff565b925050819055503373ffffffffffffffffffffffffffffffffffffffff167f64b83944e79c3ce8d4c297411de637c3e102d064677aac0c163976ebdcd6f50e843484604051610a6b939291906116c8565b60405180910390a292915050565b60008060009054906101000a900473ffffffffffffffffffffffffffffffffffffffff1673ffffffffffffffffffffffffffffffffffffffff168473ffffffffffffffffffffffffffffffffffffffff16148015610ad8575060008311155b15610b0f576040517f2c5211c600000000000000000000000000000000000000000000000000000000815260040160405180910390fd5b600073ffffffffffffffffffffffffffffffffffffffff168473ffffffffffffffffffffffffffffffffffffffff16148015610b4c575060003411155b15610b83576040517f2c5211c600000000000000000000000000000000000000000000000000000000815260040160405180910390fd5b60008060009054906101000a900473ffffffffffffffffffffffffffffffffffffffff1673ffffffffffffffffffffffffffffffffffffffff168573ffffffffffffffffffffffffffffffffffffffff1614905080158015610c125750600073ffffffffffffffffffffffffffffffffffffffff168573ffffffffffffffffffffffffffffffffffffffff1614155b15610c49576040517f6a17288200000000000000000000000000000000000000000000000000000000815260040160405180910390fd5b8015610d1c5760006103e86103e586610c629190611555565b610c6c91906115c6565b905080600154610c7c91906116ff565b81600254610c8a9190611555565b610c9491906115c6565b9250600254831115610cd2576040517f9c3a23f500000000000000000000000000000000000000000000000000000000815260040160405180910390fd5b83831015610d0c576040517fbb2875c300000000000000000000000000000000000000000000000000000000815260040160405180910390fd5b610d168584611042565b50610de4565b60006103e86103e534610d2f9190611555565b610d3991906115c6565b905080600254610d4991906116ff565b81600154610d579190611555565b610d6191906115c6565b9250600154831115610d9f576040517ff7ea86f700000000000000000000000000000000000000000000000000000000815260040160405180910390fd5b83831015610dd9576040517fbb2875c300000000000000000000000000000000000000000000000000000000815260040160405180910390fd5b610de283611160565b505b3373ffffffffffffffffffffffffffffffffffffffff167ffa2dda1cc1b86e41239702756b13effbc1a092b5c57e3ad320fbe4f3b13fe2358683610e285734610e2a565b865b85604051610e3a9392919061176a565b60405180910390a2509392505050565b60046020528060005260406000206000915090505481565b60008054906101000a900473ffffffffffffffffffffffffffffffffffffffff1681565b60035481565b600060018211610e9e57819050611024565b60008290506000600190507001000000000000000000000000000000008210610ed057608082901c9150604081901b90505b680100000000000000008210610eef57604082901c9150602081901b90505b6401000000008210610f0a57602082901c9150601081901b90505b620100008210610f2357601082901c9150600881901b90505b6101008210610f3b57600882901c9150600481901b90505b60108210610f5257600482901c9150600281901b90505b60048210610f6257600181901b90505b600181600302901c90506001818581610f7e57610f7d611597565b5b048201901c90506001818581610f9757610f96611597565b5b048201901c90506001818581610fb057610faf611597565b5b048201901c90506001818581610fc957610fc8611597565b5b048201901c90506001818581610fe257610fe1611597565b5b048201901c90506001818581610ffb57610ffa611597565b5b048201901c905061101d81858161101557611014611597565b5b048211611234565b8103925050505b919050565b6000818310611038578161103a565b825b905092915050565b816001600082825461105491906116ff565b92505081905550806002600082825461106d91906115f7565b9250508190555060008054906101000a900473ffffffffffffffffffffffffffffffffffffffff1673ffffffffffffffffffffffffffffffffffffffff166323b872dd3330856040518463ffffffff1660e01b81526004016110d193929190611733565b6020604051808303816000875af11580156110f0573d6000803e3d6000fd5b505050506040513d601f19601f82011682018060405250810190611114919061169b565b503373ffffffffffffffffffffffffffffffffffffffff166108fc829081150290604051600060405180830381858888f1935050505015801561115b573d6000803e3d6000fd5b505050565b346002600082825461117291906116ff565b92505081905550806001600082825461118b91906115f7565b9250508190555060008054906101000a900473ffffffffffffffffffffffffffffffffffffffff1673ffffffffffffffffffffffffffffffffffffffff1663a9059cbb33836040518363ffffffff1660e01b81526004016111ed92919061163a565b6020604051808303816000875af115801561120c573d6000803e3d6000fd5b505050506040513d601f19601f82011682018060405250810190611230919061169b565b5050565b60008115159050919050565b6000819050919050565b61125381611240565b82525050565b600060208201905061126e600083018461124a565b92915050565b600080fd5b61128281611240565b811461128d57600080fd5b50565b60008135905061129f81611279565b92915050565b6000602082840312156112bb576112ba611274565b5b60006112c984828501611290565b91505092915050565b60006040820190506112e7600083018561124a565b6112f4602083018461124a565b9392505050565b6000806040838503121561131257611311611274565b5b600061132085828601611290565b925050602061133185828601611290565b9150509250929050565b60008060006060848603121561135457611353611274565b5b600061136286828701611290565b935050602061137386828701611290565b925050604061138486828701611290565b9150509250925092565b600073ffffffffffffffffffffffffffffffffffffffff82169050919050565b60006113b98261138e565b9050919050565b6113c9816113ae565b81146113d457600080fd5b50565b6000813590506113e6816113c0565b92915050565b6000806040838503121561140357611402611274565b5b6000611411858286016113d7565b925050602061142285828601611290565b9150509250929050565b60008060006060848603121561144557611444611274565b5b6000611453868287016113d7565b935050602061146486828701611290565b925050604061147586828701611290565b9150509250925092565b60006020828403121561149557611494611274565b5b60006114a3848285016113d7565b91505092915050565b6000819050919050565b60006114d16114cc6114c78461138e565b6114ac565b61138e565b9050919050565b60006114e3826114b6565b9050919050565b60006114f5826114d8565b9050919050565b611505816114ea565b82525050565b600060208201905061152060008301846114fc565b92915050565b7f4e487b7100000000000000000000000000000000000000000000000000000000600052601160045260246000fd5b600061156082611240565b915061156b83611240565b925082820261157981611240565b915082820484148315176115905761158f611526565b5b5092915050565b7f4e487b7100000000000000000000000000000000000000000000000000000000600052601260045260246000fd5b60006115d182611240565b91506115dc83611240565b9250826115ec576115eb611597565b5b828204905092915050565b600061160282611240565b915061160d83611240565b925082820390508181111561162557611624611526565b5b92915050565b611634816113ae565b82525050565b600060408201905061164f600083018561162b565b61165c602083018461124a565b9392505050565b60008115159050919050565b61167881611663565b811461168357600080fd5b50565b6000815190506116958161166f565b92915050565b6000602082840312156116b1576116b0611274565b5b60006116bf84828501611686565b91505092915050565b60006060820190506116dd600083018661124a565b6116ea602083018561124a565b6116f7604083018461124a565b949350505050565b600061170a82611240565b915061171583611240565b925082820190508082111561172d5761172c611526565b5b92915050565b6000606082019050611748600083018661162b565b611755602083018561162b565b611762604083018461124a565b949350505050565b600060608201905061177f600083018661162b565b61178c602083018561124a565b611799604083018461124a565b94935050505056fea26469706673582212206af24eeafbe489c70482b11f23caf456a78ff892f205be475939d5addf35685d64736f6c634300081c0033",
  "linkReferences": {},
  "deployedLinkReferences": {}
}